:020000040800F2
:10000000B01200209D010008593800086D3000082A
:1000100055380008150A0008ED48000800000000E7
:10002000000000000000000000000000454500083E
:10003000850B0008000000005D38000849450008F5
:10004000B7010008B7010008B7010008B7010008B0
:10005000B7010008B7010008B7010008B7010008A0
:10006000B7010008B7010008B7010008B701000890
:10007000B7010008B7010008B7010008B701000880
:10008000B7010008B7010008B7010008B701000870
:10009000B7010008B7010008B7010008B701000860
:1000A000B7010008B7010008B7010008B701000850
:1000B000B7010008B7010008B7010008B701000840
:1000C000B7010008B7010008B7010008B701000830
:1000D000B7010008E1480008B7010008B7010008AF
:1000E000B7010008B7010008B7010008B701000810
:1000F000B7010008B7010008B7010008B701000800
:10010000000000000000000000000000B70100082F
:10011000B7010008B7010008B7010008B7010008DF
:10012000B7010008B7010008B7010008B7010008CF
:10013000B7010008B701000800000000000000003F
:10014000B7010008B7010008B7010008000000006F
:10015000000000000000000000000000000000009F
:100160000000000000000000B7010008B70100080F
:10017000B7010008000000000000000000000000BF
:1001800000000000B7010008DFF80CD000F0F0FA22
:100190000048004769490008B0120020064880471F
:1001A00006480047FEE7FEE7FEE7FEE7FEE7FEE75C
:1001B000FEE7FEE7FEE7FEE74D450008890100087F
:1001C000D2B201E000F8012B491EFBD27047002299
:1001D000F6E710B513460A4604461946FFF7F0FF46
:1001E000204610BD2DE9FE4F81EA030404F00044CF
:1001F00021F0004100944FF0000B23F0004350EA3F
:1002000001045ED052EA03045BD0C3F30A54C1F385
:100210000A552C44A4F2F3340194A0FB0254C1F318
:10022000130141F48011C3F3130343F4801301FB62
:10023000024400FB034E840A970A44EA815447EAC9
:100240008357A4FB076802958D0A05FB07854FEAD3
:10025000932C04FB0C542705029D4FEA065847EAED
:100260001637B5EB08056EEB070C870E920E47EAC2
:10027000811742EA8312A7FB0201B6EB0B0164EB84
:1002800000042B0D43EA0C335E1844EB1C50DA4695
:100290005146E7FB0201C5F313044FEA0B3343EA6F
:1002A00014534FEA0432019C43EA0603A4F10C0400
:1002B0000294009CCDE900B400F0FBF803B0BDE867
:1002C000F08F00200146F9E72DE9F04D81EA0304A3
:1002D00004F0004B21F0004514464FF0000A23F0D3
:1002E000004150EA050220D054EA01021DD0C5F3B6
:1002F0000A570246C5F31303C1F31300C1F30A56AC
:1003000040F4801543F48013A7EB0608101BD64673
:1003100008F2FD3873EB050002D308F1010801E093
:1003200092185B41B8F1000F03DA00200146BDE8E6
:10033000F08D00204FF48011064684460EE0171B16
:1003400073EB050705D3121B63EB050306434CEA69
:10035000010C49084FEA300092185B4150EA01074E
:10036000EDD152EA030012D082EA040083EA0501CB
:10037000084305D0101BAB4106D20122002306E042
:1003800000224FF0004302E06FF0010253101AEB1D
:1003900006004CEB085110EB0A0041EB0B01BDE8E5
:1003A000F04D00F077B80EB5C10F80EAE070084458
:1003B000CA07002140F233438DE80E000A460B467F
:1003C00000F077F803B000BD00F0004230F00040CC
:1003D0000AD0C10D01F56071C0F3160042EA015167
:1003E000C20840071143704700200146704701F0E2
:1003F000004330B421F0004150EA010206D00A0D5A
:10040000A2F56072C1F31301002A02DC30BC0020A7
:100410007047440F44EAC104C100E01830BC00EB4F
:10042000C250AFF300800029A8BF7047401C4900AC
:1004300008BF20F00100704710B4B0FA80FC00FA49
:100440000CF050EA010404BF10BC704749B1CCF174
:10045000200421FA04F411FA0CF118BF0121214300
:100460000843A3EB0C01CB1D4FEA00614FEA1020BB
:1004700042BF002010BC704700EBC350104400295D
:10048000A4BF10BC7047401C490008BF20F0010009
:1004900010BC704710B5141E73F1000408DA401C3C
:1004A00041F1000192185B411A4301D120F0010093
:1004B00010BD2DE9F04D92469B4611B1B1FA81F283
:1004C00002E0B0FA80F22032904600F069F904466A
:1004D0000F4640EA0A0041EA0B0153465A460843D8
:1004E00013D0114653EA010019D0C8F1400250461A
:1004F00000F065F905460E4650465946424600F062
:100500004FF9084305D0012004E020463946BDE8F4
:10051000F08D0020054346EAE0762C4337430A98E5
:100520006305E40AA0EB08000022FD0A44EA4754F0
:100530000A3002D500200146E9E70105101969419A
:10054000DDE9084500196941BDE8F04DA2E72DE954
:10055000FE4F804681EA0300C00F0C46009021F058
:10056000004123F00045B8EB0200A94105D2404606
:10057000214690461C460B46024623F0004010439D
:1005800047D0270DC7F30A00C3F30A510290401A5F
:10059000019040286BDAC3F3130040F4801B0098ED
:1005A000924620B10023D2EB030A63EB0B0B0198B8
:1005B0005946C0F14002504600F0F2F806460D469A
:1005C00050465946019A00F00AF910EB08006141C3
:1005D000002487EA115284EAE7731A4340D0009A54
:1005E00062B3019A012A4FEA075215DC001B61EB46
:1005F00002014FF0004202EA0752CDE90042001C1E
:1006000041F5801132462B46FFF753FF03B0BDE89A
:10061000F08F40462146F9E7001B61EB0201001C08
:1006200041F5801300185B412018A2F5001747EB35
:10063000030140EAD570B6196D4111E06D084FEA2B
:10064000360645EAC0754FEA0752001B61EB02010E
:10065000001C41F5801149084FEA30000019514152
:1006600032462B4603B0BDE8F04FFFF713BF0098AA
:10067000012240000023D0EB020263EBE0730098FC
:1006800021464FEAE074B8EB000061EB0401E9E7B2
:1006900083F000435BE781F0004158E72DE9F04D1E
:1006A00000231A461B1A8A4103DB00200146BDE8DD
:1006B000F08DC1F30A52C1F3130141F480154FF0DC
:1006C000000BD10702D100186D41521E00270446CD
:1006D00040F2FF11384601EB620A3E468046024670
:1006E00000204FF4801100F06AF8C2197141BB1864
:1006F00046EB0100B4EB030C75EB000C04D3E41AD9
:1007000065EB000517460E46241908F101006D41FE
:1007100080463428E3DDF91946EB0600091BA841A1
:1007200003D24FF0FF32134601E0002213461BEBC9
:10073000070046EB0A51BDE8F04DFFF7ABBE0000E5
:1007400030B5041E71F1000404DB4FF00044404258
:1007500064EB0101141E73F1000405DB1C464FF02D
:100760000043524263EB04038B4208BF824230BD18
:100770001CB509480090094801900546009C06E018
:10078000E06840F0010394E8070098471034AC4259
:10079000F6D3FFF7FDFC00000056000820560008C5
:1007A000202A04DB203A00FA02F100207047914031
:1007B000C2F1200320FA03F3194390407047202A26
:1007C00004DB203A21FA02F00021704721FA02F3FB
:1007D000D040C2F120029140084319467047202AB8
:1007E00006DBCB17203A41FA02F043EAE07306E059
:1007F00041FA02F3D040C2F1200291400843194669
:100800007047000080B540F29463C2F20003D3F851
:1008100000E0013A9EF800C0D2B2072A06D845F29D
:10082000E053C0F6000353F8222000E000220078D5
:1008300002FA01F310402CEA0303884018438EF8B3
:10084000000080BD002908BF704710B540F2946CCD
:10085000021FB6EE001AC2F2000C00BF92ED012A90
:100860000023B5EE402AF1EE10FAC8BF0123B8BF4D
:10087000013B03EE103AB8EEC33A23EE013A22EE02
:10088000002A32EE032ABDEEC22ADCF8000012EE86
:10089000103A4FEA132E441CCCF8004080F800E0D8
:1008A000DCF8000001390432441C0029CCF8004077
:1008B0000370D3D1BDE8104070470000002908BF85
:1008C000704710B540F2946C0238C2F2000C00BFC1
:1008D00030F8023FDCF800204FEA132E541CCCF80D
:1008E000004082F800E0DCF80020013902F1010448
:1008F000CCF800401370EBD1BDE810407047000009
:10090000002908BF704780B540F2946C0138C2F2EC
:10091000000C00BFDCF8003010F801EF013903F1E2
:100920000102CCF8002083F800E0F3D1BDE880405C
:1009300070470000002908BF704780B540F2946CF2
:100940000238C2F2000C00BFDCF8003090F803E07F
:100950005A1CCCF8002083F800E0DCF8002010F8E6
:1009600002EF013902F10103CCF8003082F800E017
:10097000EAD1BDE88040704740F2B001C2F2000108
:10098000096B002908BF70470847000010B540F206
:10099000B004C2F20004A068804733281CBF0120C5
:1009A00010BD216840F647008847A16A902088471B
:1009B000002010BD40F27C01C2F20001096B002949
:1009C00008BF704708470000B0B540F27C05C2F28E
:1009D0000005A8688047D32805D0A8688047D52897
:1009E0001CBF0120B0BD296841F23F008847A96AB9
:1009F000002000248847E96A102088472046B0BDBF
:100A000040F27C00C2F200008068002804BF002091
:100A100070470047FEE7000080B586B041F2140041
:100A2000C4F20200016841F400110160006801A9EC
:100A300000F4001001900198302001900020C1F2D4
:100A400011000290032004900020039041F2000066
:100A5000C4F6000000F050FC0A200021002201F042
:100A6000CFF80A2001F0BEF806B080BDF0B585B021
:100A700041F21400C4F20200016841F2000441F4A2
:100A8000001101600168C4F6000401F40011009136
:100A9000009901686D4641F400110160006800266C
:100AA00000F40010009000980420009003272046D6
:100AB0002946CDE90166039700F01EFC08200021BD
:100AC000002201F09DF8082001F08CF83020CDE9DB
:100AD000000620462946CDE9026700F00DFC02F031
:100AE0004DFC05B0F0BD000080B584B040F2780345
:100AF0000A4601460020C2F20003D3F800C08DF878
:100B00000F0001200DF10F03CDE9003040F2F80095
:100B1000C2F200000123CDF808C000F085FD38B115
:100B200040F2F800C2F2000000F00EFD02F026FCD8
:100B30009DF80F0004B080BD80B584B00B4601461F
:100B400040F27800C2F20000D0F800C08DF80F200B
:100B500001200DF10F02CDE9002040F2F800C2F2B1
:100B600000001A460123CDF808C000F067FE38B136
:100B700040F2F800C2F2000000F0E6FC02F0FEFBDA
:100B800004B080BD7047000010B5D0E9022C0469A4
:100B90000CF10103B3FBF2FE0EFB1232A24204BFC2
:100BA000002010BD436803F80C108168531CB3FB90
:100BB000F1F4C26004FB11310369C81A18BF0120A7
:100BC00010BD0000002918BF41600021C0E90221CA
:100BD00001617047D0E903329A4204BF0020704798
:100BE00043689A5C0A70016982680131B1FBF2F3D3
:100BF00003FB121101610120704700002DE9F04153
:100C000086B041F21406C4F20206306841F20004D4
:100C100040F4001030603068C4F6000400F40010A6
:100C2000019001980820019001200DF10408029024
:100C300000270325204641460397049500F05CFBFE
:100C400020460821012200F029FC3068414640F48A
:100C500000103060306800F40010009000982046CA
:100C6000CDE90157CDE9037500F046FB03F01AFC0E
:100C700006B0BDE8F08100002DE9F04F83B01546C5
:100C80006FF07F02064641F20000012D88BF6FF031
:100C90003F02C4F6000042EA0104082100220027B6
:100CA00000F0FCFB40F2E40AC2F2000A8DF80940B1
:100CB000DAF8004040F25410C2F200000DF10901D0
:100CC00002AA01238DF80870009401F035FE38B1B6
:100CD00040F25410C2F2000001F06AFD03F0E2FBA2
:100CE00035B340F254180024C2F200080DF10B098C
:100CF0000DF10A0B07E000BF9DF80A00013D290431
:100D000006F8010B14D0DAF80070404649465A46FE
:100D100001238DF80B408DF80A40009701F00CFE7E
:100D20000028E9D0404601F043FD03F0BBFBE3E7B8
:100D300041F20000C4F600000821012200F0AEFBE1
:100D400003B0BDE8F08F00002DE9F04F83B00646F8
:100D500041F2000015460C46C4F60000012A4FF08F
:100D600008014FF0000288BF44F04004002700F063
:100D700095FB40F2E40AC2F2000A8DF80940DAF865
:100D8000004040F25410C2F200000DF1090102AA25
:100D900001238DF80870009401F0CEFD38B140F2C7
:100DA0005410C2F2000001F003FD03F07BFB35B3E9
:100DB00040F254174FF0000BC2F200070DF10B097F
:100DC0000DF10A0805E000BF013D280406F1010607
:100DD00015D03078DAF800408DF80B0038464946D7
:100DE000424601238DF80AB0009401F0A5FD0028C9
:100DF000EAD0384601F0DCFC03F054FBE4E741F2B2
:100E00000000C4F600000821012200F047FB03B0F7
:100E1000BDE8F08F80B5013AD2B2072A06D845F274
:100E2000E053C0F6000353F822E001E04FF0000E5B
:100E300040F29463C2F2000340F69C6C1B68C2F25D
:100E4000000C9CF800201B78012A23FA01F101EA2A
:100E50000E0104BF02785140017080BD10B540F60C
:100E60009C62C2F200021278012A41D1002908BF17
:100E700010BD40F2010C9FED3C2A40F2946EC7F683
:100E8000807C031FC2F2000EDEF80020013912F848
:100E9000020B000212F8014C00B2204403EE100ACB
:100EA000B8EEC33A93ED014A21EE033A34EE033A29
:100EB000B4EE430AF1EE10FAB8BFB0EE403AB4EE29
:100EC000603AF1EE10FAB8BFB0EE603A13EE100AD5
:100ED00020F000406045B0EE424A38BFB0EE434AD1
:100EE000CEF8002083ED014A04330029CCD13AE04A
:100EF000C9B340F2010C9FED1C2A40F2946EC7F674
:100F0000807C031FC2F2000EDEF80040B0EE424AC1
:100F100014F8022B0139120214F8010C12B2104419
:100F200003EE100AB8EEC33A21EE033AB4EE430AD8
:100F3000F1EE10FAB8BFB0EE403AB4EE603AF1EE1E
:100F400010FAB8BFB0EE603A13EE100A20F000407D
:100F5000604538BFB0EE434ACEF8004083ED014A09
:100F600004330029D0D110BD0000000070B540F658
:100F70009C62C2F200021278012A39D1002908BF0E
:100F800070BD40F2946CC2F2000CDCF80030BDEE93
:100F9000C01A11EE10EABDEEE01A11EE102A023866
:100FA000023B00BF13F8024F01395D7845EA042483
:100FB0009D1CCCF8005030F8025F2C4425B201EEA5
:100FC000105AB8EEC11AB4EE410AF1EE10FAB8BFE9
:100FD000744625B201EE105AB8EEC11AF4EE410A79
:100FE000F1EE10FAC8BF144600290480DAD134E0CB
:100FF00099B340F2946CC2F2000CDCF80030BDEE04
:10100000C01A11EE10EABDEEE01A11EE102A0238F5
:10101000023B00BF13F8024F01395D789E1C45EA80
:10102000042425B201EE105AB8EEC11AB4EE410AFA
:10103000CCF80060F1EE10FAB8BF744625B201EEAC
:10104000105AB8EEC11AF4EE410AF1EE10FAC8BF18
:101050001446002920F8024FDCD170BD10B540F6CF
:101060009C6CC2F2000C9CF800C0BCF1010F1DD1B9
:10107000002908BF10BD40F2946C0138C2F2000C88
:10108000DCF800E001390EF10104CCF800409EF9D3
:1010900000E010F8014F74449442A8BF14469C42EB
:1010A000D8BF1C4600290470EAD118E0B9B140F25B
:1010B000946C0138C2F2000CDCF800E001390EF14A
:1010C0000104CCF800409EF80040A24238BF14460C
:1010D0009C4298BF1C46002900F8014FECD110BD7E
:1010E000B0B540F69C6CC2F2000C9CF800C0BCF19C
:1010F000010F23D1002908BFB0BD40F2946CC2F2A9
:10110000000CDCF80040A0F1020EA01E10F8024F07
:101110000139457845EA0424851CCCF800503EF896
:10112000025F2C44A4B2A24238BF14469C4298BF2E
:101130001C460029AEF80040E8D11DE0E1B140F2C4
:10114000946CC2F2000CDCF80040A0F1020EA01E6C
:1011500010F8024F0139457845EA0424A4B2851CF1
:10116000A242CCF8005038BF14469C4298BF1C469F
:1011700000292EF8024FEBD1B0BD000090F82110ED
:1011800002291CD180B50268D0F834E0D0E90FC341
:101190001168BEF1000F21F00E011160116821F0FD
:1011A000010111604FF0010101FA03F1CCF80410C4
:1011B0004FF48071018418BFF047002080BD0421E6
:1011C0008163012070470000B0B5044600F06CF95F
:1011D000054640F2F000C2F200000078611C18BF22
:1011E000044400BF00F060F9401BA042FAD3B0BD38
:1011F000002908BF70472DE9F04F81B041F2000788
:1012000000F13842C4F6000705264FEAB223B8427F
:1012100008BF0426042B38BF4FEAB22600F120098C
:1012200000960024002600254FF00F0808E000BFBC
:10123000013531FA05F206F1020604F1040456D034
:10124000012202FA05FC1CEA010EF1D00268032318
:10125000B3409A436FF00307026007EA550A04F0AF
:101260001C0259F80AB008FA02F22BEA020249F805
:101270000A2082689A438260426822EA0C02426035
:10128000C2689A43C26040F20042C4F20102A2F571
:101290007E7325F003029F5804F00C0208FA02FC4A
:1012A00007EA0C0A009F07FA02F29245C0D1AA0889
:1012B00053F8227027EA0C0743F8227040F20043EB
:1012C000C4F201031A6822EA0E021A605A6822EA7E
:1012D0000E025A609A6822EA0E029A6040F20C43AB
:1012E000C4F201031A6822EA0E021A60A0E701B0F4
:1012F000BDE8F04F704700002DE9F04F83B00C6857
:10130000002C00F0C38000F1200241F200050192A0
:1013100000F13847C4F60005052240F2004E4FEABE
:10132000B726A84208BF0422C4F2010E042E38BF1B
:101330004FEAB72200254FF0010900274FF00008BF
:1013400000920AE00C6808F1010834FA08F207F18B
:10135000040705F1020500F0998009FA08FA14EA79
:101360000A0CEFD04C6844F01004122C15D16FF029
:101370000302DDF8049002EA580407F01C060F226D
:1013800059F804B002FA06F30A692BEA0303B240E3
:101390001A4349F804204FF00109026803234C68FE
:1013A000AB406FEA030B9A4304F00303AB401A43CC
:1013B000122C026014D809FA04F212F0061F0FD0A2
:1013C0008268CB6802EA0B02AB401A438260426833
:1013D000C4F3001322EA0A0203FA08F31A43426034
:1013E000C2688B6802EA0B02AB401A43E300C2609A
:1013F000A8D541F21803C4F202031A684FF6084A4E
:1014000042F001021A601A68CFF6FF7A02F0010278
:101410000292029A28F00302724452F80A3007F04E
:101420000C040F26A640B343009E06FA04F423439F
:1014300042F80A30DEF800204B6842EA0C04DE0372
:1014400058BF22EA0C04CEF80040DEF804209E03C8
:1014500042EA0C0458BF22EA0C04CEF80440DEF83D
:101460000820DE0242EA0C0440F20C4658BF22EA91
:101470000C04CEF80840C4F2010632689B0242EA2E
:101480000C0458BF22EA0C0434605BE703B0BDE8EB
:10149000F08F000042695140416170471823002AD3
:1014A00008BF2823C150704740F6A860C2F2000070
:1014B0000068704790F84120202A03D190F840201E
:1014C000012A01D102207047242280F841200268BD
:1014D000136823F001031360136823F4805313602F
:1014E000136819431160116841F001011160202156
:1014F00080F84110002180F8401000207047000063
:1015000090F84120202A03D190F84020012A01D1EF
:1015100002207047242280F841200268136823F0DB
:1015200001031360136823F4706343EA012111601F
:10153000116841F001011160202180F84110002163
:1015400080F8401000207047002804BF0120704739
:1015500010B5242180F84110016804460A6822F081
:1015600001020A6000F084FA0020606484F84100FF
:10157000206384F8420084F8400010BD90F84100D8
:1015800070470000002804BF0120704710B590F894
:10159000411031B9002180F84010044600F080FA73
:1015A0002046242180F8411090E80610C4680B689A
:1015B00022F0706223F001030B600A618A68012C3B
:1015C00022F400428A604FF4044208BF4FF4004204
:1015D00042EA0C02022C8A6004BF4FF400624A60A7
:1015E0004A6800F1100C42F0007242F400424A6076
:1015F000CA6822F40042CA609CE81C101A4342EAFE
:101600000422CA60026A42EA0C020A600A6842F0D6
:1016100001020A6000212022416480F84120016318
:1016200080F84210002010BD2DE9F04F83B0044631
:1016300090F8410020280CD10C9F0120002F00F0D1
:10164000FA800D9D002D00F0F68094F840000128EE
:1016500003D1022003B0BDE8F08F01208B469246F3
:10166000994684F84000FFF71FFF21680646896904
:10167000090409D5FFF718FF801B1A2880F0B680EF
:10168000206880690004F5D40E99222084F8410076
:1016900040204FF0000884F84200C4F8448067629C
:1016A00065850D462046594652464B46C4F834805F
:1016B000CDE9005601F024FD48B1616C84F840800A
:1016C0000320042908BF012003B0BDE8F08F618D1D
:1016D00042F20040B1F5807F49F60001C8F2FF10E8
:1016E000C7F6004109D3FF22236822855A681140BA
:1016F0005A466FF39F2211430DE0628D23682285C5
:101700005F68D2B239405F466FF39F2747EA0242D3
:10171000114300F5803049F6004940F200080843C3
:10172000CFF600496FF39F2B6F1C4FF0FF0AC0F2FA
:10173000FF18586012E000BF2068616A406A4A1CC6
:1017400062620870208D01382085618D0004A1F14E
:101750000101618509D0608D002853D0206880691F
:101760004007E9D4B7B185B940E0608D0028F2D0D8
:101770002068806900061BD4C7B195B936E000BF68
:1017800081694907D8D4002FFAD0FFF78DFE801B5E
:10179000A8422BD82068F3E78169090608D4002FF6
:1017A000FAD0FFF781FE801BA8421FD82068F3E71C
:1017B000608DB0F5807F0BD32068A4F828A0416825
:1017C00001EA090141EA0B0141EA08014160C2E76F
:1017D000608D216820854A68C0B202EA09024BEA9E
:1017E0000040104340F000704860B4E7202084F8C7
:1017F0004100002084F8420084F84000032003B038
:10180000BDE8F08F20462946324601F091FD08B12F
:10181000616C55E720682021C16142684EF60003E3
:10182000CFF600631A404260002084F8411084F82B
:10183000420084F8400003B0BDE8F08F2DE9F04F7E
:1018400083B0044690F8410020280CD10C9F012061
:10185000002F00F009810D9E002E00F0058194F804
:101860004000012803D1022003B0BDE8F08F012021
:1018700093469A46029184F84000FFF715FE2168CE
:1018800005468969090409D5FFF70EFE401B1A2891
:1018900080F0B280206880690004F5D4212084F8AB
:1018A000410040204FF0000884F84200C4F8448012
:1018B00067626685DDF83890029920465A4653469D
:1018C000C4F83480CDE9009501F0A6FC18B1616C34
:1018D00084F84080A9E0608D49F6004B40F2000A90
:1018E000CFF6004BB0F5807FC0F2FF1A0DD3FF207A
:1018F000226820855068029900EA0B000B466FF3BE
:101900009F23184340EA0A000FE0608D226820857B
:101910005168C0B201EA0B0302990F466FF39F278B
:1019200047EA0040184340F000706FF39F2109F12F
:1019300001074FF0FF08506011E0616A20684A1CFF
:10194000626209788162618D01396185218D013979
:101950000A042185314619D0608D00286CD00E46CE
:10196000206880698007E8D4204649462A4601F06D
:101970007FFB002858D1002FF2D0B9F1000F47D0DB
:10198000FFF792FD401B4845EAD941E0628D002AED
:10199000E2D08069000612D47FB1B9F1000F06D100
:1019A0002AE000BF8269120609D4002FFAD0FFF79F
:1019B0007BFD401B314648451ED82068F2E7608D0C
:1019C000B0F5807F0AD32068A4F82880426802EA34
:1019D0000B020A4342EA0A024260BDE7608D2268B8
:1019E00020855368C0B203EA0B0341EA0040184364
:1019F00040F000705060AFE7202084F841000020E4
:101A000084F8420084F84000032003B0BDE8F08F62
:101A1000606C40F020006064202084F841000020C9
:101A200084F8420084F84000616C0320042908BF58
:101A3000012003B0BDE8F08F204649462A4601F058
:101A400077FC0028F0D120682021C16142684EF661
:101A50000003CFF600631A404260002084F8411072
:101A600084F8420084F8400003B0BDE8F08F000025
:101A7000006845F20041C4F20001884218BF704777
:101A800041F21C02C4F202021068C02120F40013CB
:101A900040F20040C4F600001360FFF7A9BB00004D
:101AA00010B586B0006845F20041C4F200018842DA
:101AB0004FF000000590CDE90300CDE9010001D011
:101AC00006B010BD41F21404C4F20204206801A95A
:101AD00040F480202060206800F48020009000986E
:101AE000C020019012200290012003900320049056
:101AF0000420059040F20040C4F60000FFF7FCFB14
:101B0000A06840F40010A060A06800F400100090ED
:101B1000009806B010BD000040F2F00040F6A86149
:101B2000C2F20000C2F2000100780A6810440860A6
:101B30007047000080B542F20000C4F20200016864
:101B400041F010010160032000F086F8002000F051
:101B500005F800F02BF8002080BD0000B0B540F281
:101B6000F002C2F2000240F2E8011278C2F2000173
:101B70004FF47A730968B3FBF2F20446B1FBF2F159
:101B8000084600F0FDFF0F2C4FF001050CD858B9A6
:101B90004FF0FF3021460022002500F031F840F2DE
:101BA000F400C2F2000004602846B0BD82B041F2E9
:101BB0001800C4F20200016841F0010101600168EF
:101BC00001F0010101910199416841F080514160AA
:101BD000406800F0805000900098072002B000F0AC
:101BE0003BB8000000F01F01012202FA01F14EF2A1
:101BF00000124009CEF2000242F8201070470000A7
:101C000010B54EF60C5CCEF2000CDCF80030C3F3DD
:101C1000022E8EF00704042C28BF0424BEF1030317
:101C20004FF0FF3E0EFA04F438BF0023A143994061
:101C30000EFA03F39A43114300F00F0200F16043E0
:101C40000901043A03F564436244002848BF02F1E5
:101C50000C03197010BD00004EF60C51CEF20001BD
:101C60000A684FF6FF031A4060F30A2242F08060D0
:101C700040F0FD7008607047002804BF01207047E5
:101C800010B590F8711331B9002180F87013044633
:101C900000F042F82046032180F87113416821B317
:101CA00000F13C0200234FF0010C002402F8144C18
:101CB000013402F813CC02F8113C42E9023342F835
:101CC0001C3BA142F2D100220346002483F8CC4100
:101CD000013483F8CD2183F8CF21C3E97622C3F8FC
:101CE000E021A14203F11C03F0D10268012300218D
:101CF0004FF43F44A2F84030A2F84010A2F844103C
:101D0000A2F85010A2F8404080F8241080F87133F7
:101D1000BDE810400846704710B586B0006845F62B
:101D20000042C4F2000200219042CDE90411CDE945
:101D30000211019101D006B010BD41F21404C4F2A9
:101D40000204206840F400302060206800F4003075
:101D5000009000984FF4C05001900220CDE902019C
:101D6000032004900E20059001A94FF09040FFF74A
:101D7000C3FAA06840F40000A060A06800F400006E
:101D80000090009806B010BD2DE9F04F81B00446D8
:101D9000807841F23006C007C4F2020662D056F8DD
:101DA000140C5FEAC0080BD456F8140C40F08050B5
:101DB00046F8140C56F8140C00F08050009000986F
:101DC00047F20007C4F200073868C00512D438682B
:101DD00040F480703860FFF767FB05463868C0053F
:101DE00008D4FFF761FB401B6428F7D9032001B03A
:101DF000BDE8F08F56F8100C10F4407021D06168E7
:101E000001F4407188421CD056F8100C4FF4803217
:101E100092FAA2F340F20047B3FA83F3C4F24227E6
:101E2000012547F8235092FAA2F220F44071B2FA49
:101E300082F20023C00747F8223046F8101C40F019
:101E40009F8056F8100C616820F440700843B8F188
:101E5000000F46F8100C05D456F8140C20F08050F2
:101E600046F8140C2068C10721D1810727D4410707
:101E70002DD4810633D4810339D4410641D40107DE
:101E800047D4C1064DD4810553D401065BD4C105A6
:101E900063D4C1046BD4800405D53068616B20F431
:101EA000007008433060002001B0BDE8F08F316859
:101EB000A26821F00301114331608107D7D5316851
:101EC000E26821F44031114331604107D1D53168D6
:101ED000226921F44021114331608106CBD531685C
:101EE000E26921F01001114331608103C5D556F834
:101EF0002C1CA26B21F48001114346F82C1C4106D6
:101F0000BDD53168226A21F02001114331600107FB
:101F1000B7D53168626921F4401111433160C106BF
:101F2000B1D53168A26921F44001114331608105C6
:101F3000ABD556F82C1CE26A21F40001114346F897
:101F40002C1C0106A3D556F8041C626A21F4F87112
:101F5000114346F8041CC1059BD556F8041CA26A1F
:101F600021F47851114346F8041CC10493D531681B
:101F7000226B21F480711143316080048DD492E78B
:101F8000FFF792FA81460227A6F11005A6F10C0A86
:101F900041F2883B97FAA7F097FAA7F00028284665
:101FA00002D197FAA7F05046006897FAA7F1B1FA64
:101FB00081F101F01F01C840C0077FF442AFFFF775
:101FC00073FAA0EB090058454FF00300E2D96BE724
:101FD000002804BF012070472DE9F04381B042F290
:101FE0000008C4F202080446D8F800000D4600F0CC
:101FF000070081420DD9D8F8000020F007002843DF
:10200000C8F80000D8F8000000F00700A84240F02F
:10201000A780206841F204098107C4F2020907D5AC
:10202000D9F80010A26821F0F0011143C9F800109E
:10203000C0074FD1D8F8000000F0070085420DD24C
:10204000D8F8000020F007002843C8F80000D8F8AE
:10205000000000F00700A84240F08280206841079D
:1020600007D5D9F80010E26821F4E0611143C9F8FE
:102070000010000708D5D9F80000216920F460504D
:1020800040EAC100C9F80000D9F8001001F00C00C6
:10209000082841F20020C0F27A0073D14FF4701387
:1020A00093FAA3F301F47012B3FA83F3DA4045F222
:1020B000B053C0F600039A5CD9F82830C9034FF03A
:1020C0000F0797FAA7F14FD440F60010C0F23D0079
:1020D000504357E0606802280AD0012811D14FF41C
:1020E000003090FAA0F159F8041C90FAA0F00FE02B
:1020F0004FF0007090FAA0F159F8041C90FAA0F08B
:1021000006E0022090FAA0F159F8041C90FAA0F021
:10211000B0FA80F000F01F0021FA00F0C0071FD0D5
:10212000D9F80000616820F003000843C9F80000F6
:10213000FFF7BAF9064641F2883700BFD9F8000028
:10214000616800F00C00B0EB810F3FF473AFFFF754
:10215000ABF9801BB842F1D9032001B0BDE8F08390
:10216000012001B0BDE8F08303F00F03B1FA81F163
:1021700023FA01F145F2C053C0F60003595CB0FBED
:10218000F1F05043D9F80010F02292FAA2F201F0D7
:10219000F001B2FA82F2D14045F29852C0F6000244
:1021A000515CC84040F2E801C2F200010860002022
:1021B000FFF7D4FC002001B0BDE8F08340F2E80056
:1021C00041F20401C2F20000C4F202010068096891
:1021D0004FF4E06292FAA2F201F4E061B2FA82F204
:1021E000D14045F2A852C0F60002515CC840704789
:1021F00040F2E80041F20401C2F20000C4F2020120
:10220000006809684FF4605292FAA2F201F460513A
:10221000B2FA82F2D14045F2A852C0F60002515CF7
:10222000C840704741F2040CC4F2020CDCF8001004
:1022300001F00C00082841F20020C0F27A0018BF1B
:1022400070474FF4701292FAA2F201F47013B2FACE
:1022500082F223FA02F245F2B053C0F600039B5C0F
:10226000DCF82820C9034FF00F0C9CFAACF105D420
:1022700040F60010C0F23D005843704702F00F02D4
:10228000B1FA81F122FA01F145F2C052C0F6000222
:10229000515CB0FBF1F0584370470000002804BFC8
:1022A000012070472DE9F04F83B08146007841F25C
:1022B0000008C007C4F202082FD199F80000800777
:1022C00040F1BC80D8F8040010F00C0F09D0D8F809
:1022D000040000F00C0008285DD1D8F80400C00309
:1022E00059D4022090FAA0F1D8F8001090FAA0F08A
:1022F000B0FA80F000F01F0021FA00F0C00704D00F
:10230000D9F81000012840F0AD80D8F80010D9F8B5
:102310001400F82292FAA2F288E0D8F8040000F043
:102320000C00042817D14FF4003090FAA0F1D8F82F
:10233000001090FAA0F0B0FA80F000F01F0021FA2F
:1023400000F0C007B9D0D9F804000028B5D10120A9
:1023500003B0BDE8F08FD8F8040000F00C000828A6
:1023600003D1D8F80400C003DDD4D9F80450D8F85C
:1023700000003DB1B5F5A02F00F09D81B5F5803F7F
:1023800000F09F8120F48030C8F80000D8F80000E9
:1023900020F4802097E1D9F81010012090FAA0F2E3
:1023A0000023B2FA82F2C4F24223002943EA8201F6
:1023B00017D00860FFF778F80546022494FAA4F0D5
:1023C000D8F8000094FAA4F1B1FA81F101F01F01EC
:1023D000C840C00723D1FFF767F8401B0228EDD99A
:1023E00097E100200860FFF75FF80546022400BF70
:1023F00094FAA4F0D8F8000094FAA4F1B1FA81F1AB
:1024000001F01F01C840C00718D0FFF74DF8401B6E
:1024100002284FF00300EBD903B0BDE8F08FD8F8E5
:102420000010D9F81400F82292FAA2F2B2FA82F25D
:1024300021F0F80190400843C8F8000099F8000026
:10244000000713D499F8000040073AD4D9F81C408B
:10245000002C00F0A881D8F8040000F00C00082837
:1024600040F08880012003B0BDE8F08FD9F8182033
:102470000023012090FAA0F1C4F24223B1FA81F1C5
:10248000002A03F5906256D042F82100FFF70CF8BD
:102490000546022494FAA4F094FAA4F094FAA4F065
:1024A000D8F8240094FAA4F1B1FA81F101F01F01E7
:1024B000C840C007C6D1FEF7F7FF401B0228E9D984
:1024C00027E1D8F81C00C6000BD4D8F81C0040F057
:1024D0008050C8F81C00D8F81C0000F08050029012
:1024E000029847F20004C4F200042068C00510D42A
:1024F000206840F480702060FEF7D6FF054600BFDC
:102500002068C00505D4FEF7CFFF401B6428F7D92B
:10251000FFE0D9F80C50D8F820001DB1052D69D086
:10252000012D6DD020F00100C8F82000D8F820005F
:1025300020F0040066E0002042F82100FEF7B4FF1E
:102540000546022494FAA4F094FAA4F094FAA4F0B4
:10255000D8F8240094FAA4F1B1FA81F101F01F0136
:10256000C840C0073FF46EAFFEF79EFF401B022835
:10257000E8D9CEE04FF08070002790FAA0F0C4F2C6
:102580004227B0FA80F0002147F82010FEF78CFFB8
:10259000022C05464FF0007416D100BF94FAA4F047
:1025A000D8F8000094FAA4F1B1FA81F101F01F010A
:1025B000C840C00700F0C880FEF776FF401B022825
:1025C0004FF00300EAD927E794FAA4F0D8F8000006
:1025D00094FAA4F1B1FA81F101F01F01C840C007DB
:1025E00000F0E180FEF760FF401B03284FF003007E
:1025F000EAD311E740F00400C8F82000D8F8200022
:1026000040F001000196C8F82000FEF74DFF002DB4
:10261000054621D0022408F1200708F1240A41F2DE
:10262000883600BF94FAA4F094FAA4F00028384643
:1026300002D194FAA4F05046006894FAA4F1B1FAD9
:1026400081F101F01F01C840C00729D1FEF72CFF1E
:10265000401BB042E6D95CE0022708F1200408F1F3
:10266000240A41F2883B00BF97FAA7F097FAA7F037
:102670000028204602D197FAA7F05046006897FA42
:10268000A7F1B1FA81F101F01F01C840C00707D0DE
:10269000FEF70AFF401B58454FF00300E4D9BBE6A4
:1026A000019800283FF5D2AED8F81C0020F08050E9
:1026B000C8F81C00CAE640F48020C8F80000D8F82A
:1026C000000040F48030C8F80000D8F82C00D9F899
:1026D000081020F00F000843C8F82C00FEF7E4FEB5
:1026E000002D05464FF4003420D000BF94FAA4F02A
:1026F000D8F8000094FAA4F1B1FA81F101F01F01B9
:10270000C840C0077FF4D9ADFEF7CEFE401B642859
:10271000ECD9032003B0BDE8F08F00BFFEF7C4FE84
:10272000401B64284FF003003FF676AE94FAA4F005
:10273000D8F8000094FAA4F1B1FA81F101F01F0178
:10274000C840C007EAD1B8E5D8F80400D9E90812B2
:1027500020F4741010430843C8F804004FF0807050
:1027600090FAA0F0B0FA80F047EA80000121016001
:10277000FEF79AFE04464FF0007500BF95FAA5F0EB
:10278000D8F8000095FAA5F1B1FA81F101F01F0126
:10279000C840C00707D1FEF787FE001B02284FF094
:1027A0000300EBD938E6002003B0BDE8F08F00004D
:1027B000002804BF0120704710B5022180F85D1089
:1027C000016804460A6822F040020A6000F066F8D8
:1027D0000020206684F85D0084F85C0010BD0000D5
:1027E00090F85D0070470000002804BF012070478A
:1027F000B0B50025856290F85D1029B980F85C506D
:10280000044600F061F82046022180F85D1001685E
:10281000D0F80CE00B68BEF5E06F4EF4006423F0D6
:10282000400398BF0125B4F5706F0B601CBF0023F7
:102830008362036B4FEA053C2BB90125BEF5E06FBF
:1028400088BF02250563D0E90154D0E904322C4346
:10285000234384691A4304F40073C5691A43036A65
:102860002A43856A1A432A430A60042202EA144270
:10287000436A446B42EA0C021A43224342EA0E02C4
:102880004A60CA6922F40062CA610021012201661D
:1028900080F85D20BDE8B04008467047006843F20C
:1028A0000001C4F20101884218BF704741F21802CA
:1028B000C4F202021068E02120F480534FF09040EF
:1028C0001360FEF795BC000080B586B0006843F247
:1028D0000002C4F2010200219042CDE90411CDE9C9
:1028E0000211019101D006B080BD41F21400C4F282
:1028F0000200426842F480524260426802F4805210
:102900000092009A026842F400320260006800F40B
:10291000003000900098E02001900220CDE90201F3
:10292000032004900520059001A94FF09040FEF788
:10293000E3FC06B080BD00002DE9F04F81B00446F5
:1029400090F85C00012803D1022001B0BDE8F08FAF
:1029500001201E461546894684F85C00FEF7A4FD5A
:1029600094F85D10834601292BD1B9F1000F4FF087
:10297000010018BF002D00F0FA80002E00F0F78053
:1029800094F85D0004281CBF052084F85D00002039
:1029900020662564A4F84660A4F84460C4F8389022
:1029A000E687E168A687B1F5E06FE064206503D8AB
:1029B000B4F84600022813D32068426822F48052FB
:1029C00012E06068B0F5827F08D104294FF0020060
:1029D00040F0CD80A1680029C7D0C8E00220C6E041
:1029E0002068426842F480524260206802685206C1
:1029F00003D4026842F040020260DDF82880626879
:102A0000B1F5E06F3CD912B1E18F012905D139F858
:102A1000021BC160E08F0138E087012708F1010641
:102A2000E08F20B9B4F84600002800F093806FB121
:102A3000E08F18B120688168890701D4012706E07A
:102A400039F8021BC160E08F0138E0870027B4F835
:102A5000460060B120688168C90708D0C0680127B6
:102A600025F8020BB4F846000138A4F84600002E01
:102A7000D6D0FEF719FDA0EB0B004045D0D367E0A0
:102A80004FF6FE7A12B1E18F012910D1E18F0229B0
:102A900005D339F8021BC1604FF6FE7004E019F847
:102AA000011B01730AF10100E18F0844E08701274F
:102AB00008F10106E08F18B9B4F84600002849D0A3
:102AC000C7B1E08F18B120688168890701D4012758
:102AD00011E0E18F022905D339F8021BC1604FF6DE
:102AE000FE7004E019F8011B01730AF10100E18F87
:102AF0000844E0870027B4F8460008B320688168DE
:102B0000C9071DD0B4F84610022910D3C16825F8B2
:102B1000021BB4F846100239A4F84610B4F8461067
:102B200001290CD8416841F48051416007E0007BE5
:102B300005F8010BB4F846000138A4F84600012757
:102B4000002EB7D0FEF7B0FCA0EB0B004045B1D390
:102B500003200CE0204641465A4601F029FC00289B
:102B60001CBF20202066206E002818BF01200121F4
:102B700084F85D10002184F85C1001B0BDE8F08F8E
:102B8000411E0020B0EB116F1CBF012070474EF2B8
:102B90001002CEF2000251604EF62351CEF2000137
:102BA000F0230B70072190601160704770470000A0
:102BB0007047000070B50168CA690C6802F02F0305
:102BC000202B04F020031BD1D3B1B0F85C2090F887
:102BD0006A30222B30D1898C8368B3F5805F02D1B3
:102BE0000369002B77D0436D11405A1C4265197060
:102BF000B0F85A1001390A04A0F85A105BD070BD21
:102C00008D685FEA027C1EBF05F0010E04F4907629
:102C100016EB0E0636D1D30213D515F4800310D06F
:102C20004FF480120A62202180F8691080F86A103F
:102C3000BDE87040FFF7BABF886940F008008861BE
:102C400070BD130626D514F0800323D090F86920B8
:102C5000212AD4D1B0F85220002A00F0D78082680F
:102C6000B2F5805F03D10269002A00F0D880C26CFF
:102C7000531CC36412780A85B0F852100139A0F8C9
:102C8000521070BDD50718BF14F4807429D1940771
:102C90002FD437E05206B2D514F0400208BF70BD01
:102CA0000A6822F040020A60202180F86910BDE81D
:102CB000704000F0B9B901680A6822F490720A60A5
:102CC0008A6822F001028A60202180F86A10BDE83B
:102CD000704000F065B9436D114023F8021B436555
:102CE00086E701240C62C46E44F00104C4669407B4
:102CF00008D5BEF1000F05D002240C62C46E44F06A
:102D00000404C466540708D5BEF1000F05D004249E
:102D10000C62C46E44F00204C466BCF1000F08D516
:102D20005EEA030605D008260E62C66E46F0080667
:102D3000C666C66E002E3FF462AF92062FD573B3FF
:102D4000B0F85C2090F86A30222B24D1898C8368FB
:102D5000B3F5805F02D10369002B68D0436D114049
:102D60005A1C42651970B0F85A1001390A04A0F8CB
:102D70005A1014D1016804460A6822F490720A605D
:102D80008A6822F001028A60202180F86A1000F02F
:102D900007F9204603E08A6942F008028A61C16EA1
:102DA000090709D401688968490605D40446FFF774
:102DB000FFFE0020E06670BD01680A6822F4907290
:102DC0000A608A6822F001028A60202280F86A2064
:102DD0008A68520616D58A6822F040028A60416EDF
:102DE00081B144F22572C0F60002044608464A63E7
:102DF000FEF7C4F900283FF402AF606E416BBDE8F6
:102E000070400847BDE87040FFF7D2BE086820F068
:102E100080000860086840F04000086070BDC26C27
:102E200032F8023B6FF35F230B85C26424E7436DE6
:102E3000114023F8021B436595E7000010B5A8B1C7
:102E4000044690F8690028B9002084F868002046FC
:102E500000F026F8242084F869002068016821F039
:102E600001010160204601F065FC08B1012010BDA0
:102E7000606A10B1204601F0A1FB2168486820F487
:102E800090404860886820F02A008860086840F018
:102E9000010220460A60BDE8104001F003BC0000BA
:102EA00080B586B0006843F60002C4F2010200213A
:102EB0009042CDE90411CDE90211019101D006B093
:102EC00080BD41F21400C4F20200426842F4804224
:102ED0004260426802F480420092009A026842F422
:102EE00000220260006800F400200090009830206A
:102EF00001900220CDE902010320049007200590F3
:102F000040F60000C4F6000001A9FEF7F5F92520FF
:102F100000210022FEF774FE2520FEF763FE06B0B6
:102F200080BD000090F86A30202B0BD100294FF0B3
:102F3000010318BF002A01D11846704790F8683085
:102F4000012B02D1022318467047012380F8683014
:102F50004165A0F85820A0F85A20816839B1B1F530
:102F6000805F0BD1016931B940F2FF1104E00169C2
:102F700009B17F2100E0FF21A0F85C10002322218D
:102F8000C36680F86A10016880F86830886840F08D
:102F900001008860086840F4907008601846704727
:102FA000016843F60002C4F20102914218BF704763
:102FB000B0B540F6A464C2F2000440F68022217845
:102FC000C2F2000205461046FDF7DEFD2846214606
:102FD0000122BDE8B040FFF7A5BF000090F86930BE
:102FE000202B0BD100294FF0010318BF002A01D17B
:102FF0001846704790F86830012B02D1022318461A
:103000007047C16400232121A0F85020A0F852206D
:10301000C36680F86910016880F86830086840F07D
:10302000800008601846704710B5016843F600023A
:10303000C4F20102914218BF10BD40F68062C2F294
:10304000000240F6A561C2F2000104461046FDF7F9
:10305000C1FD48B140F6A5612046C2F2000101223F
:10306000BDE81040FFF7BABF10BD0000FEE700004A
:10307000F0B581B003689B69DB0601D400213CE018
:1030800003689F69BF0616D414464D1C11D031B990
:1030900003212AE09A6992060DD4002DFAD0064643
:1030A0000F46FEF701FA0246121B39463046BA4275
:1030B000EED80368EEE71021D9612021D961996922
:1030C000890744BF002199629969C90703D19969A9
:1030D00041F00101996159684EF60002CFF6006295
:1030E00011405960042141640121202280F84120CF
:1030F000002280F8422080F84020084601B0F0BD50
:103100002DE9F04381B0044600689946436849F6CA
:103110000007C7F600473B406FF39F215FFA89F72E
:1031200041EA0741194441F0004141F40051416036
:103130008069099D089E8007904614D4771C03E09F
:103140002068806980070ED4204631462A46FFF762
:103150008FFF98BB002FF3D026B3FEF7A5F9401BD5
:10316000B042EDD91EE02068B9F1010F2FD04FEA2F
:10317000182181628069800728D4771C04E000BF91
:1031800020688069800721D4204631462A46FFF70F
:103190006FFF98B9002FF3D026B1FEF785F9401BD9
:1031A000B042EDD9606C40F020006064202084F8CB
:1031B0004100002084F8420084F84000616C032044
:1031C000042908BF012001B0BDE8F08320685FFA40
:1031D00088F1816220688069400619D466B1771C45
:1031E00005D120688169490612D4002FFAD0FEF774
:1031F0005BF9401BB042F4D9202084F84100002044
:1032000084F8420084F84000032001B0BDE8F08358
:10321000002001B0BDE8F0832DE9F04381B0044601
:1032200000689946436849F60007C7F600473B40E7
:103230006FF39F215FFA89F741EA0741194441F092
:10324000014141F4005141608069099D089E800759
:10325000904614D4771C03E02068806980070ED460
:10326000204631462A46FFF703FF98BB002FF3D0D4
:1032700026B3FEF719F9401BB042EDD91EE02068D5
:10328000B9F1010F2FD04FEA1821816280698007C0
:1032900028D4771C04E000BF20688069800721D40F
:1032A000204631462A46FFF7E3FE98B9002FF3D0B7
:1032B00026B1FEF7F9F8401BB042EDD9606C40F042
:1032C00020006064202084F84100002084F842003F
:1032D00084F84000616C0320042908BF012001B07C
:1032E000BDE8F08320685FFA88F181622068806918
:1032F000000619D466B1771C05D1206881690906DA
:1033000012D4002FFAD0FEF7CFF8401BB042F4D908
:10331000202084F84100002084F8420084F8400016
:10332000032001B0BDE8F083002001B0BDE8F083C8
:1033300070B515460E46044620688069800619D48B
:10334000204631462A46FFF793FEA8B926B1FEF77C
:10335000ABF8401BB042EFD9606C40F020006064D5
:10336000202084F84100002084F8420084F84000C6
:10337000032070BD002070BD012070BDB0B586B0C7
:1033800040F2F804C2F200042046FEF7F7F808B154
:1033900006B0B0BD45F20040C4F20000206032200B
:1033A000002204F1080341F21405012107C3626100
:1033B000C4E90722C4F20205286801A940F480206C
:1033C0002860286800F4802001900198C0200190B6
:1033D0000220CDE90200032004900420059040F271
:1033E0000040C4F60000FDF787FFA86840F4001015
:1033F000A860A86800F40010009000982046FEF72E
:10340000C1F806B0B0BD00007047000010B582B032
:1034100004460DF1070022210122FDF72DFC1CB10D
:10342000012C07D1F72000E07F209DF8071008400D
:103430008DF807000DF1070022210122FDF784FC21
:1034400002B010BD10B582B004460DF10700222174
:103450000122FDF711FC1CB1012C07D1082000E06E
:1034600080209DF8071008438DF807000DF1070034
:1034700022210122FDF768FC02B010BDB0B582B078
:103480000DF107050446284624210122FDF7F4FB2F
:103490009DF80700242100F0EF0020438DF807007D
:1034A00028460122FDF750FC02B0B0BDB0B582B095
:1034B0000DF107050446284621210122FDF7DCFB1A
:1034C0009DF80700212100F0C00020438DF807007F
:1034D00028460122FDF738FC02B0B0BD70B582B0BD
:1034E000044600200DF107058DF807008DF8060051
:1034F000284630210122FDF7BFFB0DF106063046BC
:1035000022210122FDF7B8FB9DF807009DF8061067
:1035100000F080008DF8070001F0DF0020438DF8F7
:103520000600284630210122FDF70EFC30462221FC
:103530000122FDF709FC02B070BD0000B0B582B0F9
:10354000044600208DF80700FDF758FB0DF1070534
:103550002846202101228DF80740FDF7F5FB200ABF
:103560008DF80700284623210122FDF7EDFB02B06C
:10357000B0BD000080B582B08DF807000DF10700E6
:1035800020210122FDF7E0FB02B080BD80B582B0B2
:10359000FDF734FB0DF107000F210122FDF76CFB55
:1035A0009DF8070002B080BDB0B586B0044600208B
:1035B000ADF814000490ADF80C0002908DF80700EF
:1035C0000DF1070023210122FDF756FB04AD28462B
:1035D00028210622FDF750FB9DF80700410609D47B
:1035E000002102AA35F8113022F8113001310329E7
:1035F000F8D10AE0002102AA35F811301BBA1B0CE1
:1036000022F8113001310329F6D10C2101EA900092
:103610000BA1084490ED000A221F002002A900BF60
:1036200031F91030013001EE103AB8EEC11A20EE37
:10363000011A82ED011A04320328F1D106B0B0BD9F
:1036400000000C4100008C4100008C420000000092
:1036500010B582B00DF10704204624210122FDF7A8
:103660000BFB9DF80700242140F080008DF8070037
:1036700020460122FDF768FB02B010BD7047000034
:1036800010B5044632202121FDF72EFA00F0F70094
:1036900040EA040232202121BDE81040FDF74CBA77
:1036A00010B5044632202121FDF71EFA00F00C006F
:1036B00040EA040232202121BDE81040FDF73CBA67
:1036C00010B50446FDF7D2F9E2B232202021FDF711
:1036D00033FA322023210022BDE81040FDF72CBA36
:1036E00080B5FDF7C3F932200F21BDE88040FDF71A
:1036F000FBB9000070B584B0064632202321FDF7E7
:10370000F3F9054632202421FDF7EEF93220282175
:10371000FDF7EAF98DF8040032202921FDF7E4F9DC
:103720008DF8050032202A21FDF7DEF98DF806001C
:1037300032202B21FDF7D8F98DF8070032202C21FB
:10374000FDF7D2F98DF8080032202D21FDF7CCF9D4
:1037500069068DF809000DF10A00A0F102006FF072
:10376000010101AA0CD400BF5318DC7893F9023090
:10377000023103EB0423042920F8023FF4D10AE0CC
:1037800053189C7893F90330023103EB0423042986
:1037900020F8023FF4D1C5F3011009A131F810005F
:1037A000B11E6FF001020DF10A0300BF9E1876886A
:1037B00002324643042A21F8026FF7D104B070BDEB
:1037C0000100020004000C0080B532202421FDF726
:1037D0008BF940F0800232202421BDE88040FDF7C3
:1037E000ABB9000080B5FDF717F932202221FDF7B3
:1037F0007BF940F0800232202221FDF79DF9322032
:103800002121FDF771F940F0040232202121FDF75A
:1038100093F932203821FDF767F940F01002322089
:103820003821FDF789F932203A210A22FDF784F97F
:1038300032203B210522FDF77FF932203C21052271
:10384000FDF77AF932203D213222BDE88040FDF7B4
:1038500073B90000FEE700007047000070470000E9
:10386000B0B581B0026FD0F80CE007234FF07F0CA9
:10387000826700BFDA1D2A2A16D0D91F0CFA03F37B
:1038800013EA0E032EFA01F11C4618BF0124856FBE
:1038900001F07F0141EAC4112970816F002B01F111
:1038A000010113468167E5D1827C4FF0000C002AAC
:1038B00018BF012242748DF803C0037CC57C90F8C8
:1038C00016E0C17D9DF8034003F00F0323438DF8FC
:1038D00003309DF8033005F0010443EA04138DF82A
:1038E00003309DF8033001F0010143EA41118DF8E6
:1038F00003109DF803100EF0010341EA83118DF8C7
:1039000003109DF8031041EAC2118DF803109DF8D1
:103910000310826F531C83671170417C79B18DF85D
:1039200003C0817C9DF8032001F0010111438DF853
:1039300003109DF80310826F531C83671170817D03
:1039400019B10021C0E906113EE0D0F818E00723C4
:103950004FF07F0CDA1D2A2A16D0DD1F0CFA03F374
:1039600013EA0E042EFA05F5234618BF0123816FD2
:1039700005F07F0545EAC3130B70816F002C01F140
:10398000010113468167E5D1D0F81CE007234FF011
:103990007F0C00BFDA1D2A2A16D0DD1F0CFA03F3B4
:1039A00013EA0E042EFA05F5234618BF0123816F92
:1039B00005F07F0545EAC3130B70816F002C01F100
:1039C000010113468167E5D1C17D11B10021018458
:1039D0003EE090F820E007234FF07F0CDA1D2A2A02
:1039E00016D0DD1F0CFA03F313EA0E042EFA05F5C8
:1039F000234618BF0123816F05F07F0545EAC313F5
:103A00000B70816F002C01F1010113468167E5D134
:103A100090F821E007234FF07F0C00BFDA1D2A2A1F
:103A200016D0DD1F0CFA03F313EA0E042EFA05F587
:103A3000234618BF0123816F05F07F0545EAC313B4
:103A40000B70816F002C01F1010113468167E5D1F4
:103A5000816F416701B0B0BDC0E90013002303725C
:103A60006AB3012A18BF704770B54FF2AC7C41F6BB
:103A7000B75300224FF0FF3EC1F6FF7CC0F2C143B6
:103A800012F80C40002584EA1E6426067400002EFD
:103A900048BF83EA4604072D05F101052646F5D304
:103AA00001320C2A84EA0E2EEAD141EA0E2121F0DD
:103AB000803141F0801141F40041BDE87040016067
:103AC000704700000021C0F80710C0E900117047DE
:103AD000F0B58DB004460078012806D0022801D048
:103AE000042804D100F02AFB01E000F02FFB606FF6
:103AF00000F034FBE06840F21F11884215D040F21C
:103B00001511884225D12078022840F0FD8240F628
:103B10009C67C2F200073878F0B10DF12A0003214A
:103B2000FF220023FDF79AFA1BE02078012840F0DD
:103B3000EB8240F69C64C2F200042078002800F07A
:103B400078810DF12A000321FF220023FDF786FA78
:103B500074E101202071D7E20DF12A000321FCF766
:103B6000CFFE40F20405C2F200052A7D2B7F541ED1
:103B7000B4FA84F4022A287B697B18BF62095C1EB0
:103B8000022B95F82430B4FA84F4A3F101064FEA2D
:103B90005414B6FA86F64FEA84044FEA561608BF64
:103BA00008243601022B42EA040208BF20263243D1
:103BB000002918BF42F08002002818BF0120397880
:103BC00042EA801000298DF82A000DF12A004FF0FA
:103BD000010104D0FF220023FDF740FA01E0FCF7C9
:103BE0008FFE387858B19FEDDF0ADFEDDF0A9FEDD9
:103BF000DF1A05F120000121FDF730F906E09FED05
:103C0000D90A05F120000121FCF71CFE387858B1D3
:103C10009FEDD40ADFEDD40A9FEDD41A05F1180008
:103C20000121FDF71BF906E09FEDCE0A05F1180012
:103C30000121FCF707FE387858B19FEDCA0ADFED85
:103C4000CA0A9FEDCA1A05F110000121FDF706F915
:103C500006E09FEDC40A05F110000121FCF7F2FD1A
:103C60003878002100280DF11600ADF8161007D0A5
:103C70009FEDBF0ADFEDBF0A0121FDF777F902E0F2
:103C80000121FCF71BFE95F82C0095F83410431E1B
:103C9000B3FA83F30228A1F1010095F83C204FEA22
:103CA0005313B0FA80F04FEA03134FEA501008BFE5
:103CB000202380000229A2F1010108BF0820B1FAE7
:103CC00081F1022A18BF4A091844397810430029A3
:103CD0008DF82A000DF12A004FF0010104D0FF22D7
:103CE0000023FDF7BBF901E0FCF70AFE95ED0A0A97
:103CF0009FED9C2A95ED0C1A20EE020A30EE020A86
:103D0000BDEEC00A10EE100A21EE020A95ED0E3A41
:103D100030EE020ABDEEC00AADF8020010EE100A45
:103D200023EE020AADF8040030EE020A3878BDEE48
:103D3000C00A002810EE100AADF806000DF10200CE
:103D40004FF0030105D04FF6FF720023FDF7C8F9CD
:103D500001E0FCF7EFFD387830B105F140000021BB
:103D60000122FDF757F805E005F14000002101228E
:103D7000FCF748FD387830B105F1410001210122FE
:103D8000FDF748F805E005F1410001210122FCF7AB
:103D900039FD387830B105F1420004210122FDF7E8
:103DA00039F805E005F1420004210122FCF72AFD63
:103DB000387830B105F1430005210122FDF72AF8DA
:103DC00005E005F1430005210122FCF71BFD3878D1
:103DD00030B105F1440006210122FDF71BF805E092
:103DE00005F1440006210122FCF70CFD387830B1C2
:103DF00005F1450007210122FDF70CF805E005F16A
:103E0000450007210122FCF7FDFC00F089F9387814
:103E1000002100288DF82A100DF12A004FF0010131
:103E200004D0FF220023FDF719F96DE1FCF768FDCE
:103E30006AE10DF12A000321FCF762FD207838B118
:103E40000DF12A000221FF220023FDF707F904E00B
:103E50000DF12A000221FCF753FD9DF82A009DF880
:103E60002B1000EE100A9FEDAA1AB8EE400A03EEDE
:103E7000101A20EE012AB2EE040AB8EE433A32EEEE
:103E8000002A23EE011A40F2040531EE001AB4EEC6
:103E9000402AC2F20005F1EE10FAB4EE401A85EDA8
:103EA000122A85ED131A04BF0020A864F1EE10FA5F
:103EB00004BF0020E864207838B105F150000121EA
:103EC000FF220023FDF7CAF804E005F150000121AC
:103ED000FCF716FD207838B105F151000121FF22D1
:103EE0000023FDF7BBF804E005F151000121FCF7C8
:103EF00007FD207858B19FED870ADFED870A9FED17
:103F0000871A05F160000121FCF7A8FF06E09FED8C
:103F1000810A05F160000121FCF794FC207858B17A
:103F20009FED7C0ADFED7C0A9FED7C1A05F15400C1
:103F30000121FCF793FF06E09FED760A05F154009E
:103F40000121FCF77FFC2078B0B19FED720ADFED14
:103F5000720A9FED721A05F158000121FCF77EFFED
:103F600011E000BF00FEFF4600FEFFC60001003862
:103F700000FF7F47000000009FED660A05F1580032
:103F80000121FCF75FFC207858B19FED620ADFED5C
:103F9000620A9FED621A05F15C000121FCF75EFFE9
:103FA00006E09FED5C0A05F15C000121FCF74AFC8C
:103FB000207838B10DF12A000221FF220023FDF7FD
:103FC0004DF804E00DF12A000221FCF799FC20785D
:103FD00030B105F16E0000210122FCF71BFF05E066
:103FE00005F16E0000210122FCF70CFC207830B1B5
:103FF00005F16F0001210122FCF70CFF05E005F13E
:104000006F0001210122FCF7FDFB207830B105F1A2
:10401000700002210122FCF7FDFE05E005F17000B1
:1040200002210122FCF7EEFB00F07AF8207830B193
:1040300005F1720000210122FCF7ECFE05E005F11C
:10404000720000210122FCF7DDFB00F069F8207806
:1040500038B105F16A000121FF220023FCF7FEFFC1
:1040600004E005F16A000121FCF74AFC207838B130
:1040700005F16B000121FF220023FCF7EFFF04E0B4
:1040800005F16B000121FCF73BFC207838B105F10C
:104090006C000121FF220023FCF7E0FF04E005F1A2
:1040A0006C000121FCF72CFC207840B105F1640084
:1040B00001214FF6FF720023FDF712F804E005F12D
:1040C00064000121FCF736FC207840B105F1660060
:1040D00001214FF6FF720023FDF702F804E005F11D
:1040E00066000121FCF726FC207840B105F168004C
:1040F00001214FF6FF720023FCF7F2FF04E005F107
:1041000068000121FCF716FC00F012F80DB0F0BDBC
:10411000CDCCCC3D00FEFF4600FEFFC600010038BE
:1041200040F29460C2F20000016801310160704702
:1041300040F29460C2F200000068704740F69C6054
:10414000C2F20000002101707047000040F69C6040
:10415000C2F20000022101707047000040F2946139
:10416000C2F200010860704770B582B004468079E1
:1041700008B102B070BDB4F86A00E16EA16788B101
:1041800040F680650026C2F2000500BFA06F411C0A
:10419000A16701782846FCF7F7FCB4F86A000136FD
:1041A0008642F3D340F68060C2F200000DF10701B1
:1041B000FCF710FD0028DCD040F22460C2F20000C1
:1041C0000DF107010122FEF709FF02B070BD0000EA
:1041D0002DE9F04F9FB0834629980D464FEA102AEB
:1041E00068467C211E4617461C0A4FEA13494FEACF
:1041F0001368FBF7ECFF02208DF81000289829992E
:104200000790DBF800008DF820100690C1F3004005
:1042100069462831802D8DF8067003958DF821A010
:104220008DF813608DF812408DF816908DF8178078
:104230008DF805001C911E9109D840B140F2441040
:10424000C2F20000016829B16846884702E068466A
:10425000FFF706FB0220DBF804106C468DF8000027
:10426000204688471E90204600F004F81FB0BDE8A5
:10427000F08F00000179012904BF0820704770B554
:10428000816F026F43798A1A0281B3FA83F392B283
:104290000025867C5B09652A38BF012524221D4044
:1042A00018BF25220244C2668A1AA0F86A20AEB15D
:1042B00002F00302C2F10404064608462146FBF759
:1042C00086FFB16F326F2144B6F86A30B167891A40
:1042D000304623440431A6F86A303181417939B13E
:1042E000018944F2512282840A0A80F8262010E0D3
:1042F00045F651012DB10289A0F8251002F07F0189
:1043000007E00289818442F0800180F82610C2F320
:10431000C611827C80F827107AB3B0F86AE0BEF14B
:10432000000F1FD0D0F86CC041F6B75300244FF0F7
:10433000FF32C0F2C14300BF1CF8041081EA1261D1
:104340000E0600217500002E48BF83EA46050729A6
:1043500001F101012E46F5D30134744585EA0222AC
:10436000EAD101E04FF0FF32816F0A60816FC26EC7
:1043700004318167891AA0F86A10018949B1026F76
:10438000531E002213F8016F01393244FAD1D14390
:1043900000E0FF21826F531C83671170B0F86A1030
:1043A0000131A0F86A10FFF7DFFE002070BD0000A9
:1043B000F0B581B004460068154680680E4610F4DA
:1043C000C05F0FD0A6B3771C06D12068816811F4B6
:1043D000C05F07D0002FF9D0FDF766F8401BB04250
:1043E000F3D325E02068806800061DD4206881682A
:1043F00011F4C06F15D0771C05E000BF20688168FC
:1044000011F4C06F0DD0007B002F8DF803009DF8D4
:104410000300F3D066B1FDF747F8401BB042EDD37F
:1044200006E0002001B0F0BD16B1771C2DD032E0BF
:10443000D4E900014268B1F5827F22F0E0024260D7
:104440000AD1A168B1F5004F02D0B1F5806F03D158
:10445000016821F040010160A16AB1F5005F07D158
:10446000016821F400510160016841F400510160CC
:10447000012084F85D00002084F85C00206E40F08C
:1044800020002066032001B0F0BD20688168090685
:10449000ACD5002FFAD0FDF707F8401BB042F4D39B
:1044A000C6E7000010B586B040F25414C2F2000412
:1044B0002046FEF795F908B106B010BD43F20001A1
:1044C00000200723C4F20101C4E90A034FF48273F8
:1044D0004FF0180C4FF4E0624FF4007EC4E9001373
:1044E00041F21401C4E90800C4E90202C4E904006D
:1044F000C4E906ECC4F202014A6842F480524A6000
:104500004A6802F480520192019A0A6842F4003229
:104510000A60096801F4003101910199E0210191DB
:104520000221CDE90210032004900520059001A985
:104530004FF09040FCF7E0FE2046FEF755F906B03C
:1045400010BD000070470000FDF7E6BA4EF6885037
:10455000CEF2000001684CF20C0341F470010160DE
:1045600041F20001C4F202010A68CFF67F0342F073
:1045700001020A604A681A404A600A684FF6FF73EF
:10458000CFF6F6631A400A600A684FF6CC4322F46D
:1045900080220A604A68CFF6007322F4FE024A6065
:1045A000CA6A22F00F02CA620A6B1A400A6300222A
:1045B0008A604FF0006140F8801C7047416ACA076A
:1045C0000CD18A0715D44A071ED40A0727D4CA0675
:1045D00030D48A0639D44A0642D457E00268D0F86B
:1045E00028C0536823F4003343EA0C0353608A075E
:1045F000E9D50268D0F82CC0536823F4803343EA2D
:104600000C0353604A07E0D50268D0F830C0536805
:1046100023F4802343EA0C0353600A07D7D50268CA
:10462000D0F834C0536823F4004343EA0C035360CA
:10463000CA06CED50268D0F838C0936823F48053F8
:1046400043EA0C0393608A06C5D50268D0F83CC0E3
:10465000936823F4005343EA0C0393604A0615D58C
:10466000D0F800C0036CDCF80420B3F5801F22F4FE
:10467000801242EA0302CCF8042007D1DCF80420BF
:10468000436C22F4C0021A43CCF80420090658BF38
:1046900070470168806C4A6822F400221043486029
:1046A0007047000070B504460020E066FCF7FCFE91
:1046B000216805460A6812070ED5C86980020BD426
:1046C000002600BFFCF7F0FE411B2068B6EB516FDF
:1046D00016D1C0698002F5D52068016849070DD55B
:1046E000C06940020AD400BFFCF7DEFE411B20680F
:1046F000B1F1007F04D2C0694002F5D5002008E086
:10470000016821F4D0710160816821F001018160AC
:104710000320202184F8691084F86A10002184F8AD
:10472000681070BD406A0021A0F85A10A0F852101D
:10473000FEF73EBAB0B505460168806805F10C0485
:104740001CCC184340EA0403D5F81CC00C6849F29D
:104750000C6024EA0000184340EA0C000860486836
:1047600020F4405010434860A8692A6A8B681043BF
:1047700023F430621043886044F6FF30C4F2000036
:1047800081424FF0100218DD44F60040C4F20000F0
:10479000814225D045F20000C4F20000814226D0BB
:1047A00043F60000C4F20100814235D141F23000ED
:1047B000C4F20200026846A32AE044F20040C4F2B8
:1047C000000081421AD044F60000C4F20000814289
:1047D00022D141F23000C4F202000068820C13E0E2
:1047E00041F23000C4F202000068020D0CE041F218
:1047F0003000C4F202000068820D05E041F2300092
:10480000C4F202000068020C45F2D053C0F6000367
:1048100002F0030053F82020BCF5004F13D1012013
:10482000082A4FF0000149D842F20043C0F2F403D5
:10483000DFE802F005343E44384444443C00FDF7D0
:10484000BDFC430034E0082A4FF0010088BFB0BD32
:10485000DFE802F0050E083C113C3C3C1A00FDF775
:10486000ADFC0AE0686841F20022C0F27A020EE074
:10487000FDF7BEFC01E0FDF7D5FCD5E9001200EB29
:104880005200B0FBF2F006E068684FF4004202EB21
:104890005002B2FBF0F082B2002016E0FDF7A8FC57
:1048A000430005E0FDF7BEFC430001E04FF4803318
:1048B000686803EB5001B1FBF0F100204FF6F07295
:1048C0000A40C1F3420329681A44CA60B0BD00BF60
:1048D00001000000040000000800000002000000C9
:1048E00040F22460C2F20000FEF764B9FEE7000067
:1048F00010B540F2481043F6D123C2F20000C0F6D2
:104900000003142100220024FFF7A6F840F204005F
:10491000C2F200000475047780F8244080F82C402F
:1049200080F8344080F83C400464A0F8444010BD56
:1049300080B586B003A8FFF7C5F80020ADF81400D5
:10494000039BDDF814E040F248104FF0020CC2F275
:10495000000040F215110022CDF810C0CDE900CEC4
:10496000FFF736FC06B080BD9EB041F20009C4F6E8
:104970000009FDF7DFF814AD28462821FBF727FCD6
:104980006C46002620463C211396CDE91166CDE900
:104990000F66FBF71CFC032014904FF4A020CDE918
:1049A0001506102019904FF480301C904FF4E01041
:1049B00001274FF002081D9028461897CDF86C800B
:1049C000FDF76CFC0F20CDE90F084FF48060CDE9B6
:1049D00012060FA802211196FDF7FAFA2120C0F263
:1049E000020000902046029607960E96FDF7CCF93D
:1049F00041F214000496CDE90266CDE90066C4F2E6
:104A000002000168002241F40011016001684FF6C4
:104A1000087501F4001114911499016841F4002102
:104A20000160016801F4002114911499016841F4B6
:104A300080010160016801F48001149114990168FA
:104A400041F400310160016801F4003114911499BE
:104A5000016841F48021016000684FF6087100F49C
:104A60008020149014984846FCF718FD37200090D9
:104A70000020C1F212006C46CDE9010648462146ED
:104A8000FCF73AFC48462146CDE90057CDE90266DD
:104A9000FCF732FC4FF090402146CDE900760296BB
:104AA000FCF72AFC40F2CC1445F2004540F60E100B
:104AB000C2F20004C4F20005C2F20000C4E90050D2
:104AC0002046C4E90267C4E90466C4E906662662B2
:104AD000FCF758FD20460021FCF7ECFC20460021A5
:104AE000FCF70EFD40F2C05005F55C41C2F200003B
:104AF0004FF482724FF440734FF40077082480E83B
:104B000046000721C0E90336C0E90567C461C0E972
:104B10000866C0E90A61C0E90C64FDF765FE40F271
:104B2000182005F50061C2F2000080E81201C0F80B
:104B3000108086610662FDF79FF840F2246405F557
:104B40006440C2F200044BF20721C0F201010C22C2
:104B500084E843002046C4E90366C4E90526C4E9A5
:104B600007666662FEF76AF9FBF72EFFFBF748FF60
:104B7000FBF70CFF40F6802040F29861C2F2000083
:104B8000C2F200014FF47A72FCF71CF840F6806024
:104B900040F69821C2F20000C2F200014FF47A728E
:104BA000FCF710F840F6A461C2F200012046012291
:104BB000FEF7B8F940F2040AC2F2000ADAF800007F
:104BC00080478AF81C808AF824808AF8146040F2B2
:104BD000C01940F2B8169FED779A40F6A06540F2F2
:104BE000EC0B9FED75BA9FED75CA9FED75DA9FEDE1
:104BF00076EA9FED77FADFED779ADFED74AADFEDC5
:104C000071BA40F69868C2F20009C2F20006C2F218
:104C10000005C2F2000BB7EE00AAC2F2000818E0CD
:104C200081EE0F0A82EE0F1ADAF8040088ED002AEE
:104C30008AED060A8AED081A80479BED000A8AEE83
:104C4000000A20EE290ABCEEC00A10EE100AFCF79A
:104C5000BBFA41F20000C4F600004FF40071FCF70B
:104C600019FC4846FBF7A6FE3046FBF785FEB6F971
:104C70000070B6F90240B6F9040000EE107AF8EEC2
:104C8000C0CA00EE100A2046F8EEC0DAFBF78BFB34
:104C90006DEEADDA2CEEAC0A30EE2D0A41EC180BBD
:104CA00010EE100AFBF790FB41EC100B00F018FB24
:104CB000B0EE401AB0EE480AF0EE601AF0EE680A64
:104CC00000F00EFA51EC100BFBF791FB9BED000A84
:104CD00001EE100ACAEE00EA95ED002A21EE091A4B
:104CE00038463EEE8B0A8BEE000A3AEE403A21EE51
:104CF000031A20EE020A70EE01CA00EE104AC5ED5A
:104D000000CAF8EEC0FAFBF74EFB2FEEAF0A30EE0A
:104D10002D0A41EC180B10EE100AFBF755FB41EC85
:104D2000100B00F0DDFAB0EE401AB0EE480AF0EEDB
:104D3000601AF0EE680A00F0D3F951EC100BFBF7A3
:104D400056FB3EEE8C0A8CEE000A01EE100A98ED3E
:104D5000002A21EE091AF4EE4DCAF1EE10FA3AEEED
:104D6000403A23EE011A20EE020A30EE010AB0EEBC
:104D70004D1A88ED000A08DCF4EE6BCAB0EE6B1A2F
:104D8000F1EE10FAA8BFB0EE6C1AB4EE4E0AF1EED6
:104D900010FAB0EE4E2A85ED001A3FF741AFB4EE9F
:104DA0006A0AB0EE6A2AF1EE10FAA8BFB0EE402A05
:104DB00036E700BFA34C6542AD0EA33E65F0683EEA
:104DC00000005C4200005CC20000DC420000B4C293
:104DD0000000344300007A4403B401984100009875
:104DE00050EAC12018BF04204A0D18BF40F001004E
:104DF00040F2FF72B2EB515F08BF40F002000128A1
:104E000008BF052002B0704770B59B482DED020B1E
:104E10002DED068B079D25F00044A04218DC974835
:104E2000844202DC0AD1069840B19DED060BBDEC30
:104E3000068B02B0BDE8704000F00BBB002DCCBF6C
:104E40009FED8F0B9FED900BBDEC068B02B070BDFC
:104E50008F48A04215DD8F48A042D8BF4FF0FF34E5
:104E600058DD9DED060B51EC100BFFF7B5FF042844
:104E700008BF00F005FB9DED060BBDEC068B02B0F4
:104E800070BD9DED060B51EC100B00F027FBCDE93A
:104E9000060181489FED828BA0423CDD8248A04202
:104EA0001FDD00249FED82AB9DED060B53EC1A2B0A
:104EB00051EC100BFBF74BFB9DED060B41EC190B76
:104EC00053EC1A2B51EC100BFBF78CF953EC182B0D
:104ED000FBF7DEFB53EC192BFBF7F6F9CDE90601E6
:104EE00049E09DED060B012453EC182B51EC100BFF
:104EF000FBF72DFB9DED060B41EC190B53EC182B2A
:104F000051EC100BFBF7C4FB53EC192BFBF7DCF94E
:104F1000CDE906012FE06848A0421FDD02249FED85
:104F2000689B9DED060B53EC192B51EC100BFBF716
:104F300059F953EC182BFBF70AFB9DED060B41ECDE
:104F4000180B53EC192B51EC100BFBF7A1FB53EC96
:104F5000182BFBF7B9F9CDE906010CE09DED060B26
:104F6000032453EC102B9FED580B51EC100BFBF767
:104F7000ABF9CDE906019DED060B53EC102B51EC7E
:104F8000100BFBF72FF941EC180B53EC182BFBF728
:104F900029F941EC190B4E480621B0EE490AF0EE12
:104FA000690A784400F0D9F953EC182B51EC100B36
:104FB000FBF718F941EC180B4648B0EE490AF0EE41
:104FC000690A0521784400F0C8F953EC192B51EC1B
:104FD000100BFBF707F941EC100B51EC180B53ECDD
:104FE000102B002C0EDAFBF7B2FA9DED061B53ECEA
:104FF000112BFBF7F7F89DED061B53EC112BFBF77C
:105000004AFB35E0FBF7A3FA9DED061B53EC112B91
:10501000FBF7E8F841EC100B2F48784400EBC40094
:1050200090ED001B51EC100B53EC112BFBF730FBF8
:105030009DED061B53EC112BFBF72AFB41EC100BEB
:105040002648784400EBC40090ED001B51EC100B97
:1050500053EC112BFBF71FFB41EC100B002DA2BFF3
:10506000BDEC068B02B070BD51EC100B81F000411D
:1050700041EC100B01E70000000010440000F07F3D
:10508000182D4454FB21F93F182D4454FB21F9BF3E
:105090000000DC3F0000203E0000F33F0000000065
:1050A000000000000000F03F0000E63F00000000AC
:1050B00000000000000000400080034000000000ED
:1050C000000000000000F83F000000000000F0BFFA
:1050D000BA05000070050000FA040000B2040000E8
:1050E00070B56F4E2DED040B2DED048B82B0DDF805
:1050F00024C0DDE907235C422CF000411C4341EA57
:10510000D474069D22F00040B44205D86C422C4372
:1051100040EAD474B4420BD99DED081B9DED060BFB
:1051200002B0BDEC048B04B0BDE8704000F09BB948
:10513000ACF14054A4F17F641C430BD0022404EA78
:10514000AC7444EAD27405439FED578B9FED582B06
:1051500007D015E09DED060B51EC100B00F0B6F9F1
:1051600042E0002C11BF012C9DED060B02B0BDECFE
:10517000048B04BF04B070BD022C38D0032C3BD08C
:105180000B439FED4D1B9FED4E0B0AD0B14218D142
:10519000B04209D121F0804120F080400991079070
:1051A0000FE0002A15DA10E0474B7B44002C08BFC3
:1051B00093ED000B0DD0012C10D0022C17D0032C36
:1051C0001AD0B0421DD1002A03DAB0EE410AF0EE47
:1051D000610A02B0BDEC048B04B070BD93ED000B0E
:1051E00051EC100B81F0004141EC100BF1E7B0EEF7
:1051F000480AF0EE680AECE7B0EE420AF0EE620A06
:10520000E7E7401A00159FED329B3C28C8BF8DEDA3
:10521000000B17DCBCF1000FBCBF10F13C0F8DED93
:10522000009B0FDB9DED080B53EC102B9DED060B47
:1052300051EC100BFBF748F800F050F900F046F97C
:10524000CDE90001B4B1012C10D0022C9FED220B4E
:1052500053EC102B9DED000B51EC100B19D0FBF70C
:1052600017FA53EC182BFBF713FABDE7019880F0FF
:10527000004001909DED000B53EC192B51EC100BED
:10528000FBF75EFA04BF022000F01AF99DED000B57
:105290009FE7FBF7FDF953EC182BFBF7FCF9A3E7AD
:1052A0000000F07F00000000182D4454FB2109404D
:1052B000182D4454FB2109C0182D4454FB21F9BF7B
:1052C000182D4454FB21F93FE203000000000000C8
:1052D0000000000000000000075C143326A6A13C7B
:1052E00000B52DED048BB0EE409AF0EE609A83B0DD
:1052F00051EC190BFBF7D2F941EC180B18EE100A20
:1053000018EE901A8DED008B002818BF012008437D
:1053100020F00040C0F17F6000F1E040C00F14D0E9
:1053200019EE101A19EE900A8DED009B002918BF96
:105330000121084320F00040C0F17F6000F1E0400F
:10534000C00F04BF012000F0BBF8B0EE480A03B064
:10535000F0EE680ABDEC048B00BD70B504462DED7F
:10536000028B4D1E00EBC500B0EE408AF0EE608A65
:1053700090ED000B35F0060017D053EC182B51ECD4
:10538000100BFAF72FFF41EC100B6D1E04EBC5005C
:1053900090ED001B51EC100B53EC112BFBF7D7F8E1
:1053A00041EC100B35F00600E7D1022D36D0042D6C
:1053B0001CD0062D1CBFBDEC028B70BD53EC182B0E
:1053C00051EC100BFAF70EFF94ED0A1B53EC112B66
:1053D000FBF7BDF853EC182BFAF704FF94ED081B0C
:1053E00053EC112BFBF7B3F841EC100B53EC182BDB
:1053F00051EC100BFAF7F6FE94ED061B53EC112B53
:10540000FBF7A5F853EC182BFAF7ECFE94ED040B20
:1054100053EC102BFBF79BF841EC100B53EC182BC3
:1054200051EC100BFAF7DEFE94ED021B53EC112B3E
:10543000FBF78DF853EC182BFAF7D4FE94ED001B14
:1054400053EC112BFBF783F8BDEC028B41EC100BF6
:1054500070BD10B553EC102B51EC100BFBF777F827
:1054600041EC100B10BD10B553EC112B51EC100B8F
:10547000FBF76DF841EC100B10BD000000000000C0
:105480009FED050B10B553EC102B51EC100BFAF7F8
:10549000A9FE41EC100B10BD000000000000001040
:1054A00002E008C8121F08C1002AFAD170477047ED
:1054B000002001E001C1121F002AFBD1704700004B
:1054C00001490860704700000000002010B541EC61
:1054D000100BFFF799FC51EC100B10BD82B0CDE919
:1054E000000121F0004001909DED000B02B051EC55
:1054F000100B7047000000004FBB610567ACDD3F3B
:10550000182D4454FB21E93F9BF681D20B73EF3FEA
:10551000182D4454FB21F93FE2652F227F2B7A3C62
:10552000075C143326A6813CBDCBF07A8807703C1B
:10553000075C143326A6913CC4EB98999999C9BF8E
:10554000711623FEC671BCBF6D9A74AFF2B0B3BFC3
:105550009AFDDE522DDEADBF2F6C6A2C44B4A2BF83
:105560000D5555555555D53FFF8300922449C23FEF
:105570006E204CC5CD45B73F513DD0A0660DB13F23
:10558000EB0D76244B7BA93F11DA22E33AAD903F35
:10559000000000000000000000000000000000000B
:1055A00001020304060708090000000001020304C9
:1055B00002030405060708090A0B0C0D0E0F101054
:1055C0000102030405060708090A0B0C0D0E0F1053
:1055D00000000000040000000800000002000000BD
:1055E0000100000003000000070000000F000000A1
:1055F0001F0000003F0000007F000000FF000000CF
:105600002056000800000020F8000000A054000808
:1056100018570008F8000020B8110000B054000826
:1056200000000000F14800083149000800000000B7
:10563000000000000000000000000000000000006A
:10564000000000000000000000000000000000005A
:10565000000000000000000000000000000000004A
:10566000000000000000000000000000000000003A
:10567000000000000000000000000000000000002A
:10568000000000000000000000000000000000001A
:105690000000000000000000000001003D3500088F
:1056A000093400088D3500085136000875350008AA
:1056B000DD340008453400080D3400080000000007
:1056C00000000000AD3400087D340008A935000852
:1056D000C13600087D360008E1360008C9370008E9
:1056E00000000000E5370008000000000000000096
:1056F0000000000000000000A1360008813600080C
:10570000F53600080010000000127A000000484240
:08571000010000001000000080
:040000050800018965
:00000001FF
